:020000040800F2
:10000000800500209D010008B32B0008312800085E
:10001000B12B00085D0500089F33000800000000B8
:10002000000000000000000000000000692E000831
:100030006906000800000000B52B00086B2E0008C0
:10004000B7010008B7010008B7010008B7010008B0
:10005000B7010008B70100086B060008B7010008E7
:10006000B701000871060008B7010008B7010008D1
:10007000B7010008B7010008B7010008B701000880
:10008000B7010008B7010008B7010008B701000870
:10009000B7010008B7010008B7010008770600089B
:1000A000B7010008B7010008B7010008B701000850
:1000B000B70100083D2F0008B7010008B70100088C
:1000C000B7010008B7010008B7010008B701000830
:1000D000B7010008B7010008B7010008B701000820
:1000E000B7010008B7010008B7010008B701000810
:1000F000B7010008B7010008B7010008B701000800
:10010000B7010008B7010008B7010008B7010008EF
:10011000B7010008B7010008B7010008B7010008DF
:10012000B7010008B7010008B7010008B7010008CF
:10013000B7010008B7010008B7010008B7010008BF
:10014000B7010008B7010008B7010008B7010008AF
:10015000B7010008B7010008B7010008B70100089F
:10016000B7010008B7010008B7010008B70100088F
:10017000B7010008B7010008B7010008000000003F
:10018000B7010008B7010008DFF80CD000F048F90B
:1001900000480047CD390008800500200648804708
:1001A00006480047FEE7FEE7FEE7FEE7FEE7FEE75C
:1001B000FEE7FEE7FEE7FEE7F92E000889010008EA
:1001C000D2B201E000F8012B491EFBD27047002299
:1001D000F6E710B513460A4604461946FFF7F0FF46
:1001E000204610BD2DE9FE4F81EA030404F00044CF
:1001F00021F0004100944FF0000B23F0004350EA3F
:1002000001045ED052EA03045BD0C3F30A54C1F385
:100210000A552C44A4F2F3340194A0FB0254C1F318
:10022000130141F48011C3F3130343F4801301FB62
:10023000024400FB034E840A970A44EA815447EAC9
:100240008357A4FB076802958D0A05FB07854FEAD3
:10025000932C04FB0C542705029D4FEA065847EAED
:100260001637B5EB08056EEB070C870E920E47EAC2
:10027000811742EA8312A7FB0201B6EB0B0164EB84
:1002800000042B0D43EA0C335E1844EB1C50DA4695
:100290005146E7FB0201C5F313044FEA0B3343EA6F
:1002A00014534FEA0432019C43EA0603A4F10C0400
:1002B0000294009CCDE900B400F064F803B000F0B3
:1002C00003B800200146F9E730BCBDE8C08F0EB589
:1002D00040F2334102910021CDE900110A460B465C
:1002E00000F050F803B000BDC1F30A5210B5C1F3DD
:1002F000130140F2FF3341F480119A4201DA0020E9
:1003000010BD40F233439A42A2F2334203DC524220
:1003100000F019F810BD904010BD30B50B460146F5
:1003200000202022012409E021FA02F59D4205D394
:1003300003FA02F5491B04FA02F52844151EA2F13E
:100340000102F1DC30BD202A04DB203A21FA02F060
:100350000021704721FA02F3D040C2F120029140FF
:1003600008431946704710B5141E73F1000408DAEB
:10037000401C41F1000192185B411A4301D120F069
:10038000010010BD2DE9F04D92469B4611B1B1FA26
:1003900081F202E0B0FA80F22032904600F052F88A
:1003A00004460F4640EA0A0041EA0B0153465A460A
:1003B000084313D0114653EA010019D0C8F1400296
:1003C0005046FFF7C0FF05460E4650465946424686
:1003D00000F038F8084305D0012004E020463946F3
:1003E000BDE8F08D0020054346EAE0762C43374314
:1003F0000A986305E40AA0EB08000022FD0A44EA1B
:1004000047540A3002D500200146E9E701051019DA
:100410006941DDE9084500196941BDE8F04DA2E7F1
:10042000064C074D06E0E06840F0010394E8070041
:1004300098471034AC42F6D3FFF7AAFE983B000869
:10044000B83B0008202A04DB203A00FA02F1002021
:1004500070479140C2F1200320FA03F31943904002
:100460007047000070B504460068816811F0010F04
:1004700028D18168144A114215D18168D543294099
:10048000491C816000F0DEFE064616E0816811F02E
:10049000010F03D181682940491C816000F0D2FE20
:1004A000801B022809D9606D40F010006065A06DC6
:1004B00040F00100A065012070BD20680168C943BB
:1004C000C907E3D1002070BD3F00008010B502F0E5
:1004D00067FFBDE81040014800F0B9BF38000020B8
:1004E00070B50546002408E0002223461146284640
:1004F00002F056FF641CE4B26D1C287808B1052C8C
:10050000F2D9BDE87040014800F0A1BF38000020DA
:10051000114810B50F49016000214FF47012C0E975
:1005200001120C22C2604FF4A05340228361C0E943
:100530000421C0E9071212024162C0E90A120163F4
:1005400002F078F9044800F001FFBDE810400248CD
:1005500000F0BEBE0024004038000020FEE700008E
:1005600070B5002300781C46342817D00FDCA0F1AA
:100570002005142D24D2DFE805F03523232323564C
:1005800023233B3D384E234B235111111111642875
:1005900032D009DCA0F13505042D11D8304B03EB26
:1005A000400030F8603C1DE0B02839D004DC6D28F4
:1005B00025D06E2804D125E0B52826D0FF2835D0D7
:1005C000274DA0F14106343D1A2E03D205EB40031E
:1005D00033F8823CA0F161061A2E03D205EB4000ED
:1005E00030F8C23C012924D025E04AF2DD03F9E7C6
:1005F0002823F7E71123F5E74FF47343F2E74BF2B3
:100600001023EFE742F21023ECE746F28403E9E718
:100610004FF42043E6E74AF21403E3E7C023E1E79F
:100620004FF46C43DEE74FF43343DBE74FF6DD7303
:10063000D8E743F00203012A01D143F0200309491E
:100640000C2000BF23FA00F202F00F0241F8242030
:10065000001F641CE4B2C0B2042CF3D370BD0000D0
:10066000443B0008740000207047012000F0AABC41
:10067000082000F0A7BC202000F0A4BC2DE9F04722
:10068000044690F850009AB00D464FF0000801283B
:1006900013D0012084F85000304E20684FF000093C
:1006A000B0420ED12E4F0097384602F06DF98246C7
:1006B000206802F069F960B10EE002201AB0BDE8CE
:1006C000F087616D41F02001616584F85090012050
:1006D000F4E7BAF1000F09D0606D40F020006065CA
:1006E0004FF0010884F850904046E7E71D4829681C
:1006F0001D4A0029816840F61F7321F460411BD018
:1007000094F830C041EA4C31D5F804C041EA0C01FC
:100710008160B168BE6801F0010106F001069268CF
:10072000314302F001021143DCD1AA682968114368
:1007300082689A4311430EE08160B168BD6801F0A0
:10074000010105F001059268294302F001021143FD
:10075000C8D1816899438160C4E70000000004505B
:100760000001045000030450000204502DE9F84F2A
:1007700000270446009790F85000DFF8B8930D4624
:10078000B846012811D0012684F85060206802F094
:10079000F7F860B1606D40F0200060655FF0010720
:1007A00084F85080384600F0DDB90220FBE7686825
:1007B0000C23052812D8022807D0032807D00428C4
:1007C00007D0052807D0062007E06B6006E012205E
:1007D00003E0182001E04FF480706860D5E9002143
:1007E000206803EA91131844036B01F01F014FF0D6
:1007F0001F0C0CFA01FCC2F3846223EA0C038A404A
:1008000013430363206802F0BBF88246206802F0BD
:10081000B3F85AEA00001DD1AA682968206802F0DE
:10082000BFF820686969C268C2F3C10252009140F2
:100830002A69042A0FD000EB82002B68026EDFF8D1
:10084000F8C203F0F84302EA0C020B431A4342F0E9
:100850000041016672E0002102F088F84003206840
:100860004FF0000172D002F081F890FAA0F0B0FAD7
:1008700080F1286842036ED090FAA0F0B0FA80F0C0
:10088000814204D100221146206802F098F801212B
:10089000206802F06BF8400320684FF001015DD042
:1008A00002F064F890FAA0F0B0FA80F128684203F0
:1008B00059D090FAA0F0B0FA80F0814204D1002221
:1008C0000121206802F07BF80221206802F04EF836
:1008D000400320684FF0020148D002F047F890FA38
:1008E000A0F0B0FA80F12868420344D090FAA0F05A
:1008F000B0FA80F0814204D100220221206802F087
:100900005EF80321206802F031F8400320684FF0C0
:10091000030133D002F02AF890FAA0F0B0FA80F187
:10092000286842032FD090FAA0F0B0FA80F08142FC
:1009300004D100220321206802F041F82068816878
:1009400011F0010F22D0ACE000E004E002F00EF85C
:10095000C0F384618DE7C0F3846091E702F006F88C
:10096000C0F38461A2E7C0F38460A6E701F0FEFF54
:10097000C0F38461B7E7C0F38460BBE701F0F6FF22
:10098000C0F38461CCE7C0F38460D0E72A7B296898
:1009900050F8B03FC1F3120C23EA0C0302F0180C1C
:1009A000664A22FA0CF20A4013430360E96849459B
:1009B00077D1286841031CD090FAA0F1B1FA81F1F7
:1009C000491C01F01F0109294FEA403132D80029A2
:1009D00012D000BF90FAA0F1B1FA81F101F101014A
:1009E00001F01F0106FA01F609D100BFC0F38461CE
:1009F00009E0C0F38461E3E7C0F38461EEE790FAB5
:100A0000A0F1B1FA81F101F1010101F01F0146EA03
:100A1000816102D1C0F3846003E090FAA0F0B0FAE3
:100A200080F000F1010000F01F0000EB400041EAFF
:100A3000005132E000290ED090FAA0F1B1FA81F114
:100A400001F1010101F01F0106FA01F606D100BF14
:100A5000C0F3846106E0C0F38461F1E790FAA0F18D
:100A6000B1FA81F101F1010101F01F0146EA816152
:100A700002D1C0F3846003E090FAA0F0B0FA80F0F5
:100A800000F1010000F01F002D4A00EB400002EBD6
:100A9000005041EA000141F00071AA68206801F0AD
:100AA0007FFF28482A6802423FF47AAE26488168D0
:100AB000264E274B274D01F0E071B2421CD10E02A9
:100AC0001AD422689A4202D0AA427FF469AE8268A0
:100AD00041F4000122F0E0720A4382601E481F497F
:100AE0000068B0FBF1F000EB4000800000E0401E29
:100AF00000900028FBD153E6194EB24209D1CE0135
:100B000007D422689A4201D0AA42F4D141F0807100
:100B10000AE06FF00045EA42EDD14A02EBD42268C8
:100B20009A42E8D141F48001826822F0E0720A43DF
:100B3000826035E600007F4000F0FF03FFFF070002
:100B4000000020FE0000088000030450000052C78F
:100B5000000004500002045034000020400D030047
:100B6000000084CB18BCBDE8E08F0068006C7047C3
:100B7000F8B54FF0000504002E46009502D0606DD8
:100B800010B107E00120F8BD204600F0D5F8A665B9
:100B900084F8506020688168C1F3407119B18168A0
:100BA0005B4A1140816020688168C1F3007179B9A6
:100BB0008168584A114041F0805181605648574938
:100BC0000068B0FBF1F000E0401E00900028FBD16F
:100BD00020688168C1F3007141B9616D41F0100175
:100BE0006165A16D41F00101A165012501F0C8FE1B
:100BF000616DC90600D430B1606D40F010006065D1
:100C000001252846F8BD606D20F4807040F0020098
:100C100060652068806810F0010F15D14048806839
:100C2000404900F00100896801F0010108433E4994
:100C3000896801F00101084306D13C4960688A686F
:100C400022F47C1202438A60E168606B627E084392
:100C5000A16841EA4231084394F8201040EA01407B
:100C6000012904D1A18C324A02EB41410843A16A17
:100C700029B101F47071E26A014342EA010022687D
:100C8000D1682C4B19400143D160206801F078FEF7
:100C90000646206801F070FE304315D1207E94F89E
:100CA00030102268800340EA4101D06844F2020318
:100CB00098430843D06094F8380001280CD020688D
:100CC000016921F001010161206901282068016B9F
:100CD00021F00F0111D013E0D4E90F010843D4E94A
:100CE00011121143084321680A6940F2FC739A43C8
:100CF000104340F001000861E6E7E269521E11432B
:100D00000163606D20F0020040F00100606578E74B
:100D1000C0FFFF5FC0FFFF7F34000020400D0300D5
:100D2000000004500001045000020450000304506D
:100D30000000FEFF07C0F0FF10B586B00446142186
:100D40006846FFF744FA1149206888421BD11048D1
:100D5000C16C41F40051C164C16C01F400510591B2
:100D6000C16C41F00101C164C06C694600F0010032
:100D70000590022000900B200190002002904FF07F
:100D8000904000F02BF906B010BD000000000450A8
:100D9000001002402DE9F041044639480F468168B1
:100DA00001F01F05616908290FD085B1052D0ED00E
:100DB000092D0CD0806800F4604060B1606D40F097
:100DC000200060650120BDE8F081082604E020686D
:100DD000C068C007F1E7042600F034FA804608E056
:100DE000781C06D000F02EFAA0EB0800B8420FD80D
:100DF00077B1206800683042F2D0606D40F4007036
:100E00006065206801F0C4FDD0B1607E48B117E094
:100E1000606D40F004006065002084F850000320FD
:100E2000D1E72068006800070AD5606D20F4807063
:100E30006065606DC00403D4606D40F001006065C2
:100E4000104A20681049904201D10B4600E0034649
:100E5000834210D07DB1052D0DD0092D0BD09042CD
:100E600000D00146C968082E07D0490401D40C21DE
:100E700001600020A7E7C168F5E70821F8E7000056
:100E80000003045000010450000004502DE9F0411B
:100E900004463748806800F01F05206801F070FDA7
:100EA00018B102210846BDE8F08194F850000128ED
:100EB0000CD0012084F850002046FFF7D3FA01003F
:100EC0004FF0000304D084F85030EBE70220EAE74B
:100ED000606D40F60162904340F480706065254A81
:100EE0002068254E904201D1374600E007468742F0
:100EF00000D01DB9676D27F480176765676DFF0423
:100F000004D5A76D27F00607A76500E0A3651C2799
:100F1000076084F850302068904201D1334600E0E9
:100F20000346834215D0A5B1052D12D0092D10D04E
:100F3000636D43F480136365904200D13046C0680E
:100F40008001AFD5606D20F4005040F480506065A2
:100F5000A8E7C268920105D5626D22F4005242F4FE
:100F6000805262658268054B1A40121D826099E7C3
:100F7000000304500001045000000450C0FFFF7F34
:100F800070B5044600F05EF90546601C02D00448C6
:100F90000078044400F056F9401BA042FAD370BD1B
:100FA000280000200121064A012805D0082805D084
:100FB000202800D11161704751617047D16070479E
:100FC00000000020044910B50A68024202D00860FF
:100FD000FFF7E8FF10BD0000140401402DE9F04FB9
:100FE000DFF83492002309F1040A012403250AF1F1
:100FF000040B87B00F270BF1040E04E104FA03F68B
:1010000032407CD0D1F804C0BCF1010F08D0BCF153
:10101000020F05D0BCF1110F02D0BCF1120F29D183
:10102000D0F808C0CDF800C04FEA430C05FA0CF820
:10103000CDF80CC0DDF800C02CEA080CCDF800C0DB
:10104000D1F80C80DDF80CC008FA0CF8DDF800C00F
:1010500048EA0C08C0F80880D0F8048091F804C071
:1010600028EA0608CCF3001C0CFA03FC4CEA080C36
:10107000C0F804C0D1F804806FEA080C5FEA8C7CE9
:1010800009D1D0F82CC02CEA060CC8F3C0069E404B
:1010900046EA0C06C662D0F80CC04FEA430805FACF
:1010A00008F62CEA060CCDF8148002968E6806FA33
:1010B00008F646EA0C06C6604E68022E01D0122ED3
:1010C00015D1DE0800EB86060396366A4FEA437CAC
:1010D0004FEADC6807FA08FC26EA0C06D1F810C0D3
:1010E0000CFA08FC4CEA060C039EC6F820C0066801
:1010F000DDF808C026EA0C0691F804C000E081E0A3
:10110000DDF814800CF0030C0CFA08FC4CEA060C19
:10111000C0F800C04E68F60074D5404ED6F860C0E6
:101120004CF0010CC6F860C0366E23F0030C06F0DC
:10113000010600963A4E66440296D6F808C09E070D
:101140004FEA167807FA08F62CEA060CB0F1904F31
:1011500004D0344EB04203D101261BE0002619E032
:10116000314EB04201D1022614E0304EB04201D1DE
:1011700003260FE02E4EB04201D104260AE02D4E88
:10118000B04201D1052605E02B4EB04201D1062622
:1011900000E0072606FA08F646EA0C06DDF808C065
:1011A000CCF80860D9F80060CC46D1F804809643AA
:1011B0005FEAC83800D51643CCF80060DAF8006062
:1011C000D446D1F8048096435FEA883800D51643A8
:1011D000CCF80060DBF80060DC46D1F80480964370
:1011E0005FEAC82800D51643CCF80060DEF800603E
:1011F000F446D1F8048096435FEA882800D5164368
:10120000CCF800605B1C0A6832FA03F67FF4F6AE95
:1012100007B000F013B800000004014000100240C5
:10122000000001400004004800080048000C00488D
:1012300000100048001400480018004830BCBDE809
:10124000C08F00000148806870470000280000201F
:1012500002488168027811448160704728000020AC
:10126000094810B50168002441F480710160032031
:1012700000F09EF9002000F009F808B1012401E017
:1012800000F052F9204610BD0020024070B50E4E0D
:1012900005460024307898B14FF47A71B1FBF0F034
:1012A0000A490968B1FBF0F000F01EFF40B9102DAB
:1012B00006D200222946501E00F05AF9756000E05F
:1012C0000124204670BD00002800002034000020CA
:1012D0002DE9F041044690F835000121012801D0A4
:1012E000022830D194F8340001280CD0012084F871
:1012F0003400022784F83570FFF7A4FF06464FF448
:101300007A7800250CE00220BDE8F081FFF79AFF13
:10131000801B404504D9A76384F834500320F3E7C9
:1013200020688068C0434007F0D500205FF01401BA
:10133000226801EB8003D550401C0F28F8D92046C5
:1013400000F085F801460846DEE700002DE9F0418F
:10135000040004D094F83500002518B107E00120FE
:10136000BDE8F08184F83450204600F06FF8022088
:1013700084F835002068016821F001010160002037
:101380005FF01401226801EB8003D550401C0F2848
:10139000F8D92068816841F004018160D4E9010135
:1013A0000843D4E90A1211430843E1690843216A5A
:1013B0000843A1690843616A084321684A68224BCF
:1013C0001A4010434860204601F0B8FA0600C7D121
:1013D000D4E903010843226B616911430843216882
:1013E0000A6822F0FE02104308602068016841F09C
:1013F00001010160FFF726FF07464FF47A7806E007
:10140000FFF720FFC01B404501D908200EE02068EF
:101410008068C043C007F3D1FFF714FF074608E018
:10142000FFF710FFC01B404503D91020A063032025
:1014300096E720688068C043C006F1D4A563012008
:1014400084F8350030468BE70E0000FC70472DE92C
:10145000F041044608202168C8602068816841F096
:1014600004018160FFF7EEFE054600264FF47A770F
:101470000BE0FFF7E7FE401BB84206D90420A0634B
:1014800084F834600320BDE8F08120688068C043A0
:101490000007EED4012084F8350084F83460002081
:1014A000F1E700002DE9F047044690F835009A4630
:1014B00090468946012804D0022802D00120BDE8C8
:1014C000F08794F83500012822D194F834000128DF
:1014D0000BD0012084F83400022684F83560FFF731
:1014E000B1FE05464FF47A770DE00220E7E700BF32
:1014F000FFF7A8FE401BB84205D9A663002084F878
:1015000034000320DBE720688068C0434007EFD544
:101510001421226801EB8900115801EA080141EA0F
:101520000A0111500020CAE7094808B5016E41F0D0
:1015300001010166016E01F001010091816D41F030
:1015400080518165806D00F08050009008BD0000E2
:1015500000100240002809DB00F01F020121914029
:101560004009800000F1E020C0F800117047000041
:10157000F0B40E4B1B680C46C3F30223C3F10705FE
:10158000042D00D90425191D072901D2002300E0EC
:10159000DB1E012606FA05F1491E214099409E40B6
:1015A000761E16403143F0BC02F03EB90CED00E06F
:1015B000064900F0070208684FF6FF03184040EAAA
:1015C0000220034A10430860704700000CED00E061
:1015D0000000FA051649B0F5007F0868C0F3412005
:1015E00009D0022805D0086820F4C06040F480606B
:1015F0000860002070470128FBD0086820F4C06014
:1016000040F4007008600B483222006850430A4AD8
:10161000B0FBF2F0401C00E0401E4A69520501D5C3
:101620000028F9D148694005E3D503207047000040
:10163000007000403400002040420F000248006863
:1016400000F4C06070470000007000402DE9F84FC2
:10165000044600270088E54D3E46010504F1200BB5
:101660001DD5606E78B1B0F5800F11D0B0F5000FC8
:1016700004D0B0F5400F22D001270FE0E86840F415
:101680008030E8601BE00021201D01F095FA03E0A6
:101690000021584601F026FB070010D03E46208866
:1016A000C00426D5A06EC0B1B0F1807F1AD0B0F1D1
:1016B000007F0DD0B0F1407F19D0012718E0D5F898
:1016C0008800616E20F440000843C5F88800E6E712
:1016D000E86840F48030E86009E00021201D01F056
:1016E0006BFA03E00021584601F0FCFA0746F7B117
:1016F0003E46206880033AD5A86D4FF00008C00030
:1017000009D4A86D40F08050A865A86D4FF001087D
:1017100000F080500090DFF8D8A2DAF8001041F411
:101720008071CAF80010FFF78DFD814610E0D5F8F2
:101730008800A16E20F040700843C5F88800D8E703
:10174000FFF780FDA0EB0900022801D9032705E07F
:10175000DAF80000C005F3D5002F7CD04FEA070669
:10176000B8F1000F03D0A86D20F08050A865207854
:10177000C00707D0D5F88800A16B20F0030008430C
:10178000C5F888002078800707D5D5F88800E16B78
:1017900020F00C000843C5F888002078400707D5E2
:1017A000D5F88800216C20F030000843C5F8880087
:1017B0002078000707D5D5F88800616C20F0C000BC
:1017C0000843C5F888002078C00607D5D5F88800FA
:1017D000A16C20F440700843C5F88800207880068A
:1017E00007D5D5F88800E16C20F440600843C5F8BF
:1017F00088002088800507D5D5F88800E16D20F4A1
:1018000040200843C5F888002088400507D5D5F852
:101810008800216E20F440100843C5F88800207825
:10182000400607D5D5F88800216D20F440500843C4
:10183000C5F888002078000607D5D5F88800616DC6
:1018400020F440400843C5F888002088C00509D529
:10185000D5F8880000E01CE0A16D20F4403008437A
:10186000C5F8880020884FF0006780044FF080683A
:101870004FD5D5F88800E16E20F040600843C5F8E8
:101880008800E06EB8423CD1E86840F48010E8601F
:101890003FE0D5F8900010F4407015D0D4F88410D3
:1018A000814211D0D5F89000D5F8901020F4407006
:1018B00041F48031C5F89010D5F8901021F48031B2
:1018C000C5F89010C5F89000C00710D0FFF7BAFC1B
:1018D000074641F2883906E0FFF7B4FCC11B4945D1
:1018E00001D903263CE7D5F890008007F4D5D5F858
:1018F0009000D4F8841020F440700843C5F890009C
:101900002EE7404505D10121201D01F055F900B118
:1019100006462068000317D5D5F88800216F20F00F
:1019200040600843C5F88800206FB84204D1E868D9
:1019300040F48010E86007E0404505D10121201DFA
:1019400001F03AF900B106462068400317D5D5F8F2
:101950008800616F20F040600843C5F88800606F20
:10196000B84204D1E86840F48010E86007E04045E0
:1019700005D10121201D01F01FF900B10646208884
:1019800040041AD5D5F88800A16F20F040500843D4
:10199000C5F88800A06FB0F1805F03D0B0F1005FA0
:1019A00005D00AE00221201D01F006F903E0022122
:1019B000584601F097F900B106462088000407D583
:1019C000D5F88800E16F20F080400843C5F8880012
:1019D0002068C00307D555F8880FD4F8801020F090
:1019E000004008432860304600F004B80010024070
:1019F0000070004018BCBDE8E08F00002DE9F04702
:101A00000F46050058D0404E306800F00700B8423D
:101A100009D2306820F0070038433060306800F0A9
:101A20000700B84248D12878384CC0072CD06868E5
:101A3000032811D0022812D0216898B14905002945
:101A40003ADAA16821F003010143A160FFF7FAFB34
:101A5000804641F2883910E021688901EFE721686A
:101A60008903ECE78907EAE7FFF7ECFBA0EB080145
:101A7000494502D90320BDE8F087A068696800F0F5
:101A80000C00B0EB810FEFD12878800705D5A06856
:101A9000A96820F0F0000843A060306800F007005B
:101AA000B8420BD9306820F0070038433060306806
:101AB00000F00700B84201D00120DCE72878400799
:101AC00005D5A068E96820F4E0600843A0602878A4
:101AD000000706D5A068296920F4605040EAC100DB
:101AE000A06000F01BF8A168094AC1F30311515C22
:101AF00001F01F01C8400749086007480068BDE8B9
:101B0000F047FFF7C3BB0000002002400010024076
:101B1000583B0008340000202C00002070B52549F7
:101B2000002318468A68CC6812F00C0204F0030601
:101B3000214C4FEA640509D00C2A05D0042A32D082
:101B4000082A00D1284670BD012E10D10B681B0752
:101B500004D4D1F89430C3F3032302E00B68C3F339
:101B60000313164E56F82330DAB10C2AEBD1C868AD
:101B700000F00300022818D0032818D01846CA68BD
:101B8000CB68C2F30212C3F306234343521CB3FBD8
:101B9000F2F2C868C0F34160401C4000B2FBF0F0B4
:101BA00070BD184670BD204670BD2046E7E7284648
:101BB000E5E70000001002400024F400683B000844
:101BC0002DE9F84304006FD0FE4DA86800F00C0624
:101BD000E86800F003072078C00664D576B10C2EC3
:101BE00001D1012F0AD0A069002828687AD040F0DE
:101BF00001002860FFF726FB80465DE0286880072B
:101C000002D5A0690028DED0216A2868000703D524
:101C1000286800F0F00004E0D5F89400F02202EA11
:101C20001010814216D9084601F0E0F800283BD197
:101C3000286840F0080028602868216A20F0F00039
:101C4000084328606868E16920F47F4040EA012089
:101C5000686016E0286840F0080028602868216A5B
:101C600020F0F000084328606868E16920F47F40B4
:101C700040EA0120686026B9206A01F0B7F8002820
:101C8000D5D1FFF74BFFA968CF4AC1F30311515CCF
:101C900001F01F01C840CD490860CD480068FFF73A
:101CA000F5FA00287ED12EE0CAE000BFFFF7CAFA9D
:101CB000A0EB0800022876D828688007F6D52868A7
:101CC00040F0080028602868216A20F0F0000843EE
:101CD00028606868E16920F47F4040EA012068607C
:101CE00011E0FFE720F001002860FFF7ABFA804623
:101CF00006E000BFFFF7A6FAA0EB08000228DAD83A
:101D000028688007F6D42078C00740D0082E18D065
:101D10000C2E01D1032F14D06068B0F5803F17D08E
:101D2000B0F5A02F286817D020F4803028602868EC
:101D300020F4802028606068E0B1FFF783FA8046D5
:101D400014E02868800322D56068002878D01EE05F
:101D5000286840F48030EDE740F480202860F7E701
:101D6000FFF770FAA0EB08006428A4D82868800365
:101D7000F6D50CE0FFF766FA804605E0FFF762FA59
:101D8000A0EB0800642896D828688003F6D4207851
:101D900080073BD5042E11D00C2E01D1022F0DD07F
:101DA000E06801E092E1F1E0002828681ED040F4EC
:101DB00080702860FFF746FA07460CE02868400567
:101DC0000CD5E0680028C1D008E000BFFFF73AFA60
:101DD000C01B022893D828684005F7D56868217C85
:101DE00020F0F85040EA016068600FE020F4807055
:101DF0002860FFF727FA074605E000BFFFF722FA41
:101E0000C01B0228B1D828684005F7D42078000705
:101E100029D560690028D5F8940012D040F001005F
:101E2000C5F89400FFF70EFA074604E0FFF70AFA38
:101E3000C01B022899D8D5F894008007F6D512E087
:101E400000E120F00100C5F89400FFF7FBF9074618
:101E500005E000BFFFF7F6F9C01B022885D8D5F8CA
:101E600094008007F6D42078400766D5A86D002737
:101E7000C00008D4A86D40F08050A865A86D012767
:101E800000F08050009053480168C90512D40168E1
:101E9000814641F480710160FFF7D4F9804605E086
:101EA000FFF7D0F9A0EB080002286FD8D9F800009E
:101EB000C005F5D5A068012816D00528D5F89000F2
:101EC00017D020F00100C5F89000D5F8900020F060
:101ED000040000BFC5F89000A06841F28839C0B185
:101EE000FFF7B0F980460FE0D5F8900040F0010010
:101EF000F0E740F00400C5F89000F5E7FFF7A2F91D
:101F0000A0EB0801494541D8D5F890008007F5D5E8
:101F10000EE0FFF797F9804606E000BFFFF792F961
:101F2000A0EB0801494531D8D5F890008007F5D4D9
:101F30001FB1A86D20F08050A865A06A38B30228B0
:101F40000AD00C2E7ED0286820F080702860286887
:101F500010F0205F77D0AAE0E868E26A00F00301A1
:101F600091422BD1216B00F070020901103991428E
:101F700024D1626B00F4FE41B1EB022F1ED1A26BA3
:101F800000F40031072A03D0012202E09DE089E03D
:101F90000022914212D1A18F00F4C00249084905E4
:101FA000A1F50011914209D194F8401000F0C060F1
:101FB00049084906A1F1007181425CD00C2E41D044
:101FC000286809E000100240583B00083400002057
:101FD0002C0000200070004040017ED42868C00022
:101FE0007BD4286820F080702860FFF72BF9064624
:101FF00005E000BFFFF726F9801B022865D8286896
:102000008001F7D4D4E90B016FF00F0202EB01114C
:102010000843A18F5204490802EB4151626B41EA27
:102020000221084394F840104FF07E42490802EB29
:1020300041610843A16B090940EA4140E968284A27
:10204000114001E049E02EE00843E860286840F0D4
:1020500080702860E86840F08070E860FFF7F2F870
:10206000044604E0FFF7EEF8001B02282DD828688C
:102070008001F7D52FE0286880012CD4286840F033
:1020800080702860E86840F08070E860FFF7DAF858
:10209000044604E0FFF7D6F8001B022815D828688C
:1020A0008001F7D517E0E86820F00300E860E868F1
:1020B0000C490840E860FFF7C5F8044608E000BF97
:1020C000FFF7C0F8001B022802D90320BDE8F883FF
:1020D00028688001F4D40020F8E70120F6E700002A
:1020E0008C809DF9FFFFEEFE10B5401EB0F1807FA1
:1020F00001D3012010BD4FF0E02460610F21601773
:1021000001F092FB0020A06107202061002010BD9B
:102110007047704770470000F0B590F83C20012AE6
:1021200039D0012480F83C40022280F83D2002682A
:1021300053689568194E1A4FB24201D0BA4204D181
:1021400023F4700C4B6843EA0C0323F0700C0B680B
:1021500043EA0C0353600268B24210D0B2F1804FE0
:102160000DD0104B9A420AD00F4B9A4207D00F4B1A
:102170009A4204D0BA4202D00D4B9A4204D18968E7
:1021800025F080031943916080F83D40002180F8DC
:102190003C100846F0BD0220F0BD0000002C0140BC
:1021A000003401400004004000080040000C0040E2
:1021B0000040014010B5040003D094F83D0010B178
:1021C00007E0012010BD002084F83C00204600F00C
:1021D00023F8022084F83D00211D206800F0B4FEA1
:1021E000012084F8480084F83E0084F83F0084F819
:1021F000400084F8410084F8420084F8430084F8E9
:10220000440084F8450084F8460084F8470084F8C8
:102210003D00002010BD000008B5114A01681148BA
:10222000914211D1816D41F002018165806D0022E2
:1022300000F00200009011461D20FFF799F9BDE85B
:1022400008401D20FFF786B9074A914207D1816DEA
:1022500041F004018165806D00F00400009008BD2C
:1022600000040040001002400008004090F83D10BB
:10227000012901D001207047022180F83D1001683A
:10228000CA6842F00102CA6000681149884211D050
:10229000B0F1804F0ED00F4988420BD00E498842D2
:1022A00008D00E49884205D00D49884202D00D4918
:1022B000884207D181680C4A1140062906D0B1F541
:1022C000803F03D0016841F00101016000207047A8
:1022D000002C01400004004000080040000C0040B9
:1022E00000340140004001400700010070B5044681
:1022F00090F83C00012817D0012584F83C500220BA
:1023000084F83D00226890682E4B184020F47F40EE
:1023100090600868502830D00DDC20284DD005DCB6
:1023200098B310283BD148E0022070BD302844D03B
:10233000402834D139E0602828D0702806D0B0F584
:10234000805F2CD0B0F5005F29D10AE0CB68D1E9DD
:102350000121206800F065FE2068816841F0770166
:1023600009E0CB68D1E90121206800F05AFE20681D
:10237000816841F48041816011E0CA684968206841
:1023800000F0EAFF5021206807E016E0CA684968BB
:10239000206800F0F2FF6021206800F04CFE84F815
:1023A0003D50002084F83C0070BDCA684968206830
:1023B00000F0D2FF40212068EFE722680146104676
:1023C000EBE7000088FFFEFF704770B50446006829
:1023D00001694FF00005C943890715D4C168C94395
:1023E000890711D4E91E01610120207720688069E6
:1023F0008007204602D0FFF7E7FF04E000F0D0F8A6
:10240000204600F08FF9257720680169C943490704
:1024100017D4C168C943490713D46FF0040101619F
:10242000022020772068806910F4407F204602D087
:10243000FFF7CAFF04E000F0B3F8204600F072F99D
:10244000257720680169C943090716D4C168C943C3
:10245000090712D46FF00801016104202077206879
:10246000C0698007204602D0FFF7AEFF04E000F00D
:1024700097F8204600F056F9257720680169C9438E
:10248000C90617D4C168C943C90613D46FF0100137
:102490000161082020772068C06910F4407F204641
:1024A00002D0FFF791FF04E000F07AF8204600F038
:1024B00039F9257720680169C943C90708D1C1687E
:1024C000C943C90704D1891E0161204600F0AEF955
:1024D00020680169C943090609D4C168C9430906CE
:1024E00005D46FF0800101612046FFF712FE2068DD
:1024F0000169C943C90509D4C168C943090605D49E
:102500006FF4807101612046FFF702FE20680169C7
:10251000C943490609D4C168C943490605D46FF0C7
:1025200040010161204600F082F920680169C94339
:1025300089060BD4C168C943890607D46FF020010E
:1025400001612046BDE87040FFF7E4BD70BD0000AA
:1025500010B586B0044614216846FDF738FE0D49D3
:102560002068884214D10C48C16C41F00201C1645A
:10257000C06C002100F00200059040200090022075
:10258000CDE90101CDE9031069460448FEF726FDB7
:1025900006B010BD000800400010024000040048D2
:1025A000704770B5044690F83C000D4601280BD0EA
:1025B000012084F83C000C2A45D007DC5AB1042ADB
:1025C0001BD0082A78D12CE0022070BD102A4ED0F2
:1025D000142A71D15DE0206800F036FD2068816921
:1025E00041F0080181612068816921F00401816165
:1025F000206881692A69114311E0206800F072FDAA
:102600002068816941F4006181612068816921F459
:1026100080618161206881692A6941EA02218161C2
:102620004AE0206800F0A6FD2068C16941F0080179
:10263000C1612068C16921F00401C1612068C169DC
:102640002A69114311E0206800F0DCFD2068C169AF
:1026500041F40061C1612068C16921F48061C161F8
:102660002068C1692A6941EA0221C16124E0206829
:1026700000F002FE2068416D41F0080141652068CC
:10268000416D21F0040141652068416D2A691143C3
:1026900011E0206800F028FE2068416D41F40061DF
:1026A00041652068416D21F4806141652068416D7C
:1026B0002A6941EA02214165002084F83C0070BD8E
:1026C00010B5040003D094F83D0010B107E00120DC
:1026D00010BD002084F83C00204600F022F80220C3
:1026E00084F83D00211D206800F02EFC012084F8B4
:1026F000480084F83E0084F83F0084F8400084F8E5
:10270000410084F8420084F8430084F8440084F8CF
:10271000450084F8460084F8470084F83D00002016
:1027200010BD70477047000030B50446022269B101
:10273000042912D0082917D00C291CD0102921D027
:1027400094F84300012824D0012030BD94F83E00C5
:102750000128F9D184F83E201DE094F83F000128BB
:10276000F2D184F83F2016E094F840000128EBD124
:1027700084F840200FE094F841000128E4D184F867
:10278000412008E094F842000128DDD184F842207D
:1027900001E084F843200122206800F035FC1A4A49
:1027A00020681A4B1A49904209D0984207D08842B3
:1027B00005D0184DA84202D0174DA84203D1456C50
:1027C00045F400454564206890420FD0B0F1804F39
:1027D0000CD0124A904209D0114A904206D0114AB8
:1027E000904203D0984201D0884207D181680E4AB6
:1027F0001140062906D0B1F5803F03D0016841F0B1
:1028000001010160002030BD002C01400034014076
:1028100000400140004401400048014000040040E5
:1028200000080040000C004007000100704770479E
:10283000FEE7000030B5B9B0142122A8FDF7C7FCAF
:10284000442127A8FDF7C3FC88216846FDF7BFFC9B
:10285000364CA06D40F08050A065A06D002500F0C2
:10286000805038900420319527900120299027A886
:10287000FFF7A6F900B1FEE74FF4003000904012D8
:1028800021906846FEF7E2FEE06C40F00100E06453
:10289000E06C00F001003890E06C40F00200E06471
:1028A000E06C00F002003890E06C40F00400E0645E
:1028B000E06C00F004003890E06C40F00800E06448
:1028C000E06C22A900F00800389048F2C070229015
:1028D0000220CDE92305032025900B2026904FF000
:1028E0009040FEF77BFB4FF23320229022A9104844
:1028F000FEF774FB4FF4FC70229022A90D48FEF7FE
:102900006DFB4FF47F40229022A90B48FEF766FB37
:102910000220FEF735FBA06D40F40070A065A06DAD
:1029200000F40070389039B030BD00000010024053
:102930000004004800080048000C004870B5044638
:10294000FEF780FC05464FF47A7608E0FEF77AFC45
:10295000401BB04203D90120A063032070BD206852
:102960008068C0438006F1D4002070BD00EB810078
:10297000006E00F0F84070478068C0F3C0007047F8
:102980008068C0F3800070478068C0F380007047A3
:10299000C06810F4406F01D00020704701207047DC
:1029A000042303EAD15310B518444369C1F3045119
:1029B00007248C40A3438A401343436110BD00EBBE
:1029C0008100016E21F00041114301667047000053
:1029D00030B589B0002406940794182168460894FD
:1029E000FDF7F5FB164815490425C0E9001484607D
:1029F000C460C0E90445047644760121C16180F8D1
:102A000020408462C46280F83040446380F83840DB
:102A1000FEF7AEF806A90A480694FDF72FFE09480E
:102A200000900620CDE901047F200594CDE903053F
:102A300069460348FDF79AFE09B030BD0000045016
:102A4000840000204000201930B587B0142168466A
:102A5000FDF7BDFB1F48C16C41F00101C164C16CB1
:102A600001F001010591C16C41F00201C164C06C2B
:102A7000194C00F0020005900120CDE9000400206F
:102A80004FF09045029069462846FEF7A7FA2820A5
:102A9000CDE900040220029069462846FEF79EFA1E
:102AA000002211460620FEF763FD0620FEF752FDC8
:102AB000002211460920FEF75BFD0920FEF74AFDC2
:102AC000002211461720FEF753FD1720FEF742FDA6
:102AD00007B030BD001002400000111010B588B0E2
:102AE00000241348009401940294039404940594E0
:102AF0000E490694016040F2CF71C0E9011441F221
:102B00008731C0E9031480218161FFF753FB4FF443
:102B10008050009069460648FFF7E8FB049404A93A
:102B200003480694FFF7F8FA08B010BD000400400F
:102B3000E800002030B58FB0002407940894099471
:102B40000A940B940C941C2168460D94FDF73FFBEE
:102B500016481549642502C0042132C040F81049C6
:102B600084611248FFF726FB4FF48050079007A9B5
:102B70000E48FFF7BBFB0D48FFF7A2FD0B940BA916
:102B80000A480D94FFF7C8FA60200090CDE901547F
:102B90000022694605480494FFF703FD0348FFF748
:102BA000D7FC0FB030BD0000000800403401002009
:102BB000FEE77047704700002DE9F041444C0546A0
:102BC0008846E0680026810728680DD0E16801F09A
:102BD0000301814216D1A8B1E0686968C0F3021010
:102BE000401C88420ED120E0012804D0022805D0E4
:102BF000032807D108E02168890701E02168490519
:102C0000002907DB01265FE02168890302D42168DF
:102C10004903F5E7E1686A686FF00F0321F073017B
:102C200003EB021211430143E160206820F0806051
:102C30002060FEF707FB074605E000BFFEF702FB3A
:102C4000C01B022837D820680001F7D4B8F1000F64
:102C500018D0B8F1010F1ED0287D4FF07E414008FA
:102C600001EB4060A96840EA01202169194A11403E
:102C700008432061206840F080602060FEF7E2FA9F
:102C800007461AE0A868E9680002090940EA4140DD
:102C90002169114AEBE7288A1049400801EB4050AE
:102CA000A96840EA012021690D4AE0E7FEF7CAFA67
:102CB000C01B022801D9032606E020680001F5D5D3
:102CC0002069A969084320613046BDE8F081000011
:102CD00000100240FF80FFF9FF80FDFF0000E0FFD1
:102CE000FF809FFF2DE9F0413D4C06468846E06895
:102CF0000025810730680DD0E16801F003018142B1
:102D000016D1A8B1E0687168C0F30210401C884277
:102D10000ED120E0012804D0022805D0032807D1D5
:102D200008E02168890701E021684905002907DBDF
:102D3000012551E02168890302D421684903F5E7A0
:102D4000E16872686FF00F0321F0730103EB021268
:102D500011430143E160206820F080502060FEF7BD
:102D600071FA074605E000BFFEF76CFAC01B0228A7
:102D700029D820688000F7D4B8F1000F15D0307C36
:102D80004FF07E41400801EB4060B16840EA01200D
:102D90006169144A114008436061206840F0805026
:102DA0002060FEF74FFA07460FE0B068F1680002B6
:102DB000090940EA414061690B4AEBE7FEF742FA34
:102DC000C01B022801D9032506E020688000F5D544
:102DD00060697169084360612846BDE8F0810000C0
:102DE00000100240FF80FFF9FF80FDFFF8B51C4D89
:102DF00006460024A86DC00002D5FEF71FFC0DE0BA
:102E0000A86D40F08050A865A86D00F0805000903B
:102E1000FEF714FCA96D21F08051A965B0F5007F83
:102E200004D0802E07D94FF003040AE0802E08D981
:102E3000A02E01D804E001D1022402E0702E00D1BE
:102E400001240848016821F007012143016000685E
:102E500000F00700A04201D00120F8BD0020F8BD1D
:102E600000100240002002407047FEF7F1B9F0B5B3
:102E7000B9B0442122A8FDF7AAF9142133A8FDF71F
:102E8000A6F988216846FDF7A2F910200124002642
:102E90002290CDE9284602256020CDE92C542A90C5
:102EA00014200727CDE92E40CDE93075329522A8B0
:102EB000FEF786FE0F203390032034908020CDE96A
:102EC0003506012133A83796FEF798FDA003009040
:102ED00080031E901820CDE9024001942006CDE920
:102EE0000650CDE904756846FEF7B0FB6002FEF7B8
:102EF00071FB39B0F0BD00000D48016841F470016C
:102F000001600C48016841F001010160002181600D
:102F10000268094B1A4002608214C260026822F4FF
:102F20008022026081610249C003803908607047D5
:102F300088ED00E000100240FFFFF6EA0148FFF7CD
:102F400044BA0000E80000202DE9F0470268264B53
:102F5000264D274E274F284C4FF0804A984209D0E3
:102F6000504507D0A84205D0B04203D0B84201D0A6
:102F7000A04204D122F0700C4A6842EA0C02DFF849
:102F80007CC0DFF87C80DFF87C9098420FD0504501
:102F90000DD0A8420BD0B04209D0B84207D0A04211
:102FA00005D0604503D0404501D0484503D122F407
:102FB0004075CA682A434D6922F080022A430260A4
:102FC0008A68C2620A688262984207D0A04205D02D
:102FD000604503D0404501D0484501D109690163EE
:102FE00001214161BDE8F087002C01400004004050
:102FF00000080040000C0040003401400040014047
:10300000004401400048014010B501F01F030121B8
:10301000046A99408C430462016A9A401143016238
:1030200010BD10B5846842EA032224F47F440A43A9
:103030002243826010BD826822F070020A4342F08F
:1030400007018160704700002DE9F043026A22F019
:1030500001020262056A436882691C4C25F0020580
:1030600022400C6822F0030214438A68194E2A4356
:10307000174D194FDFF864C0DFF86490A84207D0FD
:10308000B04205D0B84203D0604501D0484506D1D2
:1030900022F00808CA6842EA080222F00402A842A4
:1030A00007D0B04205D0B84203D0604501D04845B2
:1030B00005D14D6923F440731D438B692B43436055
:1030C0008461496841630262BDE8F0838FFFFEFFBF
:1030D000002C014000340140004001400044014008
:1030E00000480140F0B5026A22F010020262056A4F
:1030F00042688369194C1B4E23400C6823F44073CB
:1031000043EA042425F020038D6843EA0513144D97
:10311000A84201D0B04206D1CF6823F0800343EA31
:10312000071323F04003A8420AD0B04208D00E4D46
:10313000A84205D00D4DA84202D00D4DA84207D19E
:103140004D6922F4406242EA85028D6942EA8502B5
:1031500042608461496881630362F0BDFF8FFFFEB6
:10316000002C014000340140004001400044014077
:1031700000480140F0B5026A22F480720262056ADA
:103180004368C269194C1B4E22400C6822F00302AE
:10319000144325F400728D6842EA0522144DA842BA
:1031A00001D0B04206D1CF6822F4006242EA072281
:1031B00022F48062A8420AD0B04208D00E4DA84244
:1031C00005D00E4DA84202D00D4DA84207D14D6941
:1031D00023F4405343EA05138D6943EA0513436022
:1031E000C4614968C1630262F0BD00008FFFFEFF49
:1031F000002C0140003401400040014000440140E7
:103200000048014030B5026A22F480520262046A2A
:103210004268C369124D24F400542B400D6823F416
:10322000407343EA05238D6844EA05340D4DA842F6
:103230000BD00D4DA84208D00C4DA84205D00C4D26
:10324000A84202D00B4DA84204D14D6922F480421D
:1032500042EA85124260C36149680164046230BD7C
:10326000FF8FFFFE002C0140003401400040014070
:10327000004401400048014030B5026A22F4803227
:103280000262046A4268436D114D2B400D681D4374
:1032900024F400330C8943EA04430E4CA0420BD0C3
:1032A0000D4CA04208D00D4CA04205D00C4CA042C1
:1032B00002D00C4CA04204D14C6922F4803242EA84
:1032C00004224260456549688165036230BD0000A3
:1032D0008FFFFEFF002C0140003401400040014000
:1032E000004401400048014030B5026A22F48012D7
:1032F0000262046A4268436D114D24F400142B40AD
:103300000D6843EA05230D8944EA05540D4DA84292
:103310000BD00D4DA84208D00C4DA84205D00C4D45
:10332000A84202D00B4DA84204D14D6922F480225C
:1033300042EA8522426043654968C165046230BD46
:10334000FF8FFFFE002C014000340140004001408F
:10335000004401400048014010B5036A046A24F0AB
:1033600001040462846924F0F00444EA021423F0A6
:103370000A020A438461026210BD10B5036A23F099
:10338000100303628369046A23F4704343EA023240
:1033900024F0A00343EA01118261016210BDFEE73F
:1033A0002DE9F0411D46FDF7DBF8FE4C062D7DD2E0
:1033B000DFE805F0034FA3F6F4F32078FA4DC107D8
:1033C000C90E00F0020241EA825100F0040241EA13
:1033D000025300F008000343F2482A4600213C381B
:1033E000FEF760F82079C107C90E00F0020241EA39
:1033F000825100F0040241EA025300F00800034346
:10340000E8482A4602213C38FEF74CF8207AC107EA
:10341000C90E00F0020241EA825100F0040241EAC2
:10342000025300F008000343DE482A4604213C38DA
:10343000FEF738F8207BC107C90E00F0020241EA0E
:10344000825100F0040241EA025300F008000343F5
:1034500050E02078D54DC107490E00F0020241EA44
:10346000023100F0040241EA822100F0080041EA42
:103470008003CC482A4600213C38FEF713F8207917
:10348000C107490E00F0020241EA023100F00402D5
:1034900041EA822100F0080041EA8003C1482A463F
:1034A00002213C38FDF7FEFF207A00E0A3E1C107CE
:1034B000490E00F0020241EA023100F0040241EA42
:1034C000822100F0080041EA8003B6482A46042120
:1034D0003C38FDF7E7FF207BC107490E00F00202F0
:1034E00041EA023100F0040241EA822100F00800C2
:1034F00041EA80032A4606211DE12078AC4DC10730
:10350000090C00F0020241EA027100F0040241EAF3
:10351000826100F0080041EAC023A2482A46002147
:103520003C38FDF7BFFF2079C107090C00F002020B
:1035300041EA027100F0040241EA826100F00800F1
:1035400041EAC02397482A4602213C38FDF7AAFFEA
:10355000207AC107090C00F0020241EA027100F072
:10356000040241EA826100F0080041EAC0238D486C
:103570002A4604213C38FDF795FF207BC107090C42
:1035800000F0020241EA027100F0040241EA8261A5
:1035900000F0080041EAC023ACE7D2E05FE0FFE7BB
:1035A00020786FF04045C10700F0080041EAC06391
:1035B0007C482A4600213C38FDF774FF2078AE0095
:1035C00000F00203C0F38000034376483246012135
:1035D0003C38FDF767FF20792A46C10700F0080054
:1035E00041EAC0636F4802213C38FDF75BFF207958
:1035F000324600F00203C0F3800003436948032110
:103600003C38FDF74FFF207A2A46C10700F008003A
:1036100041EAC063634804213C38FDF743FF207A48
:10362000324600F00203C0F3800003435D480521E9
:103630003C38FDF737FF207B2A46C10700F0080021
:1036400041EAC063574806213C38FDF72BFF207B39
:10365000324600F00203C0F3800003436AE02078A2
:103660006FF0407600F00201090600F0040041EA24
:1036700080534C48324600213C38FDF713FF206848
:10368000042505EA500100F0010041EAC003454865
:10369000B7153A4601213C38FDF704FF2079324640
:1036A00000F00201090600F0040041EA80533D48A1
:1036B00002213C38FDF7F6FE60683A4605EA500103
:1036C00000F0010041EAC003364803213C38FDF711
:1036D000E9FE207A324600F00201090600F00400FB
:1036E00041EA80532F4804213C38FDF7DBFEA068F7
:1036F0003A4605EA500100F0010041EAC0032948BA
:1037000005213C38FDF7CEFE207B324600F0020159
:10371000090600F0040041EA8053224806213C38A3
:10372000FDF7C0FEE0683A4605EA500100F00100EE
:1037300041EAC0030721BDE8F0411A483C38FDF7D3
:10374000B1BE20781B4DC107890B00F0020241EA8F
:10375000C21100F0040241EAC21100F0080041EA7F
:10376000C05310482A4600213C38FDF79BFE2079C3
:10377000C107890B00F0020241EAC21100F0040205
:1037800041EAC21100F0080041EAC05305482A4648
:1037900002213C38FDF786FE207AC107890B00F034
:1037A000020209E074000020E7FF3FFF9FCFFFFF08
:1037B000FF3FFFCFFFFCFDFB41EAC21100F0040216
:1037C00041EAC21100F0080041EAC0532A46042130
:1037D0000A48FDF767FE207BC107890B00F0020253
:1037E00041EAC21100F0040241EAC21100F00800EF
:1037F00041EAC0537EE6BDE8F081000038000020B9
:103800000FB4084B10B504A902AA039800F02CF8D5
:10381000044602A9002000F0D4F8204610BC5DF850
:1038200014FB0000C33900080907090E002804DB57
:1038300000F1E02080F80014704700F00F0000F164
:10384000E02080F8141D704702E008C8121F08C16C
:10385000002AFAD170477047002001E001C1121F11
:10386000002AFBD1704700002DE9FF4F89B09B462D
:103870000446002506E025280BD05A460B999047B0
:10388000641C6D1C20780028F5D10DB0284600F08E
:1038900095B80027B8460122474900E0074314F8CD
:1038A000013F203B02FA03F00842F7D120782E288E
:1038B00019D114F8010F47F004072A280ED06FF031
:1038C0002F022078A0F1300109290CD808EB8801DB
:1038D00002EB410100EB0108641CF2E70A98641C4A
:1038E00050F8048B0A9020780028CED0642808D0A5
:1038F000692806D075281ED05A460B9990476D1C32
:1039000058E00A994FF00A0901C90A91002802DA21
:1039100040422D2102E0390504D52B218DF82010DD
:10392000012103E0F90704D02021F7E78A4608AE19
:103930000DE00021FAE70A994FF00A0901C90A913E
:10394000F7E74946FCF7E9FC303106F8011D00288D
:10395000F7D1ADEB060000F12009780701D44FF054
:103960000108C84502DDA8EB090000E00020804600
:10397000002706E008A85A46C05D0B9990476D1CC9
:103980007F1C5745F6DB04E030205A460B999047E0
:103990006D1CB8F10001A8F10108F5DC05E016F88E
:1039A000010B5A460B9990476D1CB9F10001A9F122
:1039B0000109F4DC641C65E70928010030BCBDE89E
:1039C000C08F0A68531C0B60107070474FF416606C
:1039D000484C4FF0010800256080C4E9028525614C
:1039E0006561FDF73DFCFCF793FDFFF740FAFFF73B
:1039F0002BF8FEF7EDFFFFF79DF8FFF76FF80021BA
:103A00003D48FEF791FE3C484C38FEF72FFC3A4EFD
:103A10000A27A068012804D0022809D001280DD067
:103A20003CE06069012809D102206561A06038E0AE
:103A30006069012835D1C4F8088065612E48B03826
:103A4000FDF724FA2C484FF0FF31B038FDF7A2F90A
:103A50002948B038FDF789F880B22080FCF737FCA0
:103A60009FED261B53EC112BFCF7BCFBFCF73CFC39
:103A700082B22048A28023A11C30FFF7C1FE1D485E
:103A80001C30FCF72DFD1B480123002219461D3078
:103A9000FCF71CFD4FF49670FDF772FAA06802283F
:103AA00010D11448628819A12230FFF7A9FE1148ED
:103AB0002230FCF715FD0F48012300221946233060
:103AC000FCF704FDE068012803D160883230608093
:103AD000E5602069012803D1608832386080256163
:103AE000A1886088081A90FBF7F00E30A061316859
:103AF00048638EE70000002034010020D50451F710
:103B00000188034025642043000000002564000074
:103B100000FE1467001D1447009D009C003F00FA42
:103B20001400005341980019485A095A005F00FCDC
:103B3000015F01FC00AF1404005BC018815AC9008A
:103B40005800C005005F004200F5006700EA00AFC2
:103B500000BF004600FF00EF000000000000000072
:103B60000102030406070809A0860100400D0300B6
:103B7000801A060000350C0040420F0080841E00B1
:103B800000093D0000127A000024F40000366E01A6
:103B90000048E801006CDC02B83B0008000000208F
:103BA0003800000048380008F03B000838000020CA
:103BB0004805000058380008000000000000000020
:103BC00000000000000000000000000000000000F5
:103BD00000000000000000000000000000000000E5
:103BE00001000000100000000000000000093D007E
:040000050800018965
:00000001FF
